:100000000C94DB050C9403060C9403060C94030675
:100010000C9403060C9403060C9403060C9403063C
:100020000C9403060C9403060C94790C0C94EB0CC2
:100030000C9403060C9403060C9403060C9403061C
:100040000C9403060C9403060C9403060C9403060C
:100050000C9403060C9403060C9403060C94E0071E
:100060000C9403060C9403060C9403060C940306EC
:100070000C9403060C9403060C9403060C940306DC
:100080000C9403060C9403060C9403060C940306CC
:100090000C9403060C9403060C9403060C940306BC
:1000A0000C9403060C9403060C9403065B065E0690
:1000B0004D06510655067F067F067F0662066606D8
:1000C0006A06700674067F067A0636073B07400705
:1000D0004A0754079E079E079E075E076807720738
:1000E0007C0789079E079107F0F89C8E8783878E8F
:1000F0009CF8F00000FEFF0303030303070EFCF867
:100100000000FEFF0303030303070EFCF80000FFDB
:10011000FF00000000000000FFFF0000FEFF8383DF
:10012000838383C7EE7C380000F8FC0E07030303CB
:10013000070EFCF800003F7FE0C08080C0E07F3FFA
:10014000FFFF01010101010101FFFF0000FFFF0CA2
:100150000C0C0C1C3E77E3C100007FFFC0C0C0C088
:10016000C0E0703F1F00001F3F70E0C0C0C0E070E3
:100170003F1F00007FFFC1C1C1C1C1E3773E1C002A
:10018000001F3F70E0C0C0C0E0703F1F00000000D3
:100190000001FFFF01000000D5F08D14A1C881CF40
:1001A000D9F1AF20002104090D0B09000404000A55
:1001B0000B0B050006090906000F05050100010FDC
:1001C00001000B00050808054008601D0B091B0312
:1001D00000003D4340613F1F0000710F0638701F53
:1001E00000003C424149493A000000407D7F430104
:1001F00000000000000000002060407D3F0301007F
:1002000000601D0B396F46000020364000000000E2
:1002100000000000000000000000000000000000DE
:100220000000000000000000000C046232101808FA
:1002300000000000000000808040603010B8FC7CAE
:100240003810000000000000000000806030100046
:100250000000808080C048484C848404060600006A
:10026000E0B04CE6F232C361B111131E0F19F80869
:100270000C06020100000000000000000000000069
:100280000E0380E0300C02C161202060C0800000BD
:10029000F9870206E40C38F33C3B255ADDDE5F5F4C
:1002A0002E36100E0300180E436030180E000000AA
:1002B0000000000000C0701E03000000000F386046
:1002C000C680C07F00000003060808080E01000079
:1002D000000000010102040830E0000000000000FE
:1002E000000000000000000000F80F010000000006
:1002F0000000000000E0301808081870C00000007E
:1003000000000000000000008080C04030101C078A
:100310008080603C06000000000000000000000338
:10032000060C0818101030202020202020E030106B
:10033000080809080C040404C4741C0C0607030212
:100340000286848898F0C1000000000000000000D0
:100350000000000000000000C06030080C0404042D
:10036000040602030C183020A0E0602030F81F0CB7
:1003700004060202030181C16030180C070000006E
:1003800000000000000000000000000000000F1846
:100390003020203010101808080C0402030100005F
:1003A0000000000103060404040406030100000029
:1003B0000000000000000000000000000000F8FC49
:1003C0001C0C440404440C1CFCF800000000070F43
:1003D0000E0C193A3A190C0E0F07000038448239F6
:1003E0007D6D0D0DFE0402D9DDD90204FE0101E28E
:1003F000C4E20101FEFE01016D6D6D558200000039
:100400000000007C82017D7D7D01827E21418E1075
:100410008E41211EFE01016D6D6D7DFE0101DD9D90
:100420000D21629C00BE4141B10E0000000101019E
:1004300001010101010101010101010101000000AF
:1004400001010000010101010101000000000000A4
:100450000000000101010101000000000001000096
:100460000000000101010101010001010000010182
:10047000010000000101000000387CC68292F2F207
:1004800000F8FC262226FCF800FEFE1C381CFEFEAE
:100490000000FEFE92929282000000000000000028
:1004A0007CFE828282FE7C001E3E70E0703E1E005A
:1004B00000FEFE9292928200FEFE2262F2DE9C001C
:1004C0000000BEBE0E0000000000000000000000A2
:1004D000000000000000000000000000000000001C
:1004E000000000000000000000000000000000000C
:1004F00000000000000000000000000000000000FC
:1005000000000000000000000000000000000000EB
:1005100000000000182442816624241800183C7E44
:100520001818180008083C3C3C3C3C3C3C7E000051
:100530006890906800000000B04848B000000000DB
:10054000B07878B0000008083F41BDBDBDBD413F57
:1005500008083F4181818181413F08080102010271
:100560000102010208080070999F9F997000080815
:100570003C3C425A5A423C0008083C3C3C3C3C3C17
:100580003C3C08080080F8FCFCFCBC3C080801FF6F
:1005900001555501FF01080800FF00545400FF00F9
:1005A000080803030303030303030808FBFBEBEB47
:1005B000BBBBFBFB0808FFFFEFEFBFBFFFFF000067
:1005C0000000003E5B4F5B3E3E6B4F6B3E1C3E7C33
:1005D0003E1C183C7E3C181C577D571C1C5E7F5EE1
:1005E0001C00183C1800FFE7C3E7FF0018241800A0
:1005F000FFE7DBE7FF30483A060E26297929264037
:100600007F050507407F05253F5A3CE73C5A7F3E62
:100610001C1C08081C1C3E7F14227F22145F5F00F4
:100620005F5F06097F017F006689956A6060606090
:100630006094A2FFA29408047E040810207E20107B
:1006400008082A1C08081C2A08081E101010100C84
:100650001E0C1E0C30383E3830060E3E0E060000D2
:1006600000000000005F00000007000700147F1476
:100670007F14242A7F2A12231308646236495620E5
:10068000500008070300001C2241000041221C000A
:100690002A1C7F1C2A08083E0808008070300008C9
:1006A00008080808000060600020100804023E519D
:1006B00049453E00427F400072494949462141492F
:1006C0004D331814127F1027454545393C4A494996
:1006D0003141211109073649494936464949291E00
:1006E00000001400000040340000000814224114EF
:1006F00014141414004122140802015909063E4141
:100700005D594E7C1211127C7F494949363E414168
:1007100041227F4141413E7F494949417F090909C1
:10072000013E414151737F0808087F00417F41002D
:100730002040413F017F081422417F404040407FDC
:10074000021C027F7F0408107F3E4141413E7F0929
:100750000909063E4151215E7F091929462649496A
:10076000493203017F01033F4040403F1F204020AA
:100770001F3F4038403F63140814630304780403A8
:100780006159494D43007F41414102040810200056
:100790004141417F040201020440404040400003C7
:1007A00007080020545478407F2844443838444493
:1007B0004428384444287F385454541800087E098B
:1007C0000218A4A49C787F0804047800447D4000AB
:1007D0002040403D007F1028440000417F40007CC5
:1007E000047804787C080404783844444438FC18BD
:1007F00024241818242418FC7C08040408485454A1
:10080000542404043F44243C4040207C1C204020CD
:100810001C3C4030403C44281028444C9090907C34
:100820004464544C44000836410000007700000046
:100830004136080002010204023C2623263C1EA188
:10084000A161123A4040207A3854545559215555E7
:100850007941215454784121555478402054557998
:10086000400C1E5272123955555559395454545929
:1008700039555454580000457C410002457D4200E2
:1008800001457C40F0292429F0F0282528F07C54EB
:100890005545002054547C547C0A097F493249490B
:1008A00049323248484832324A4848303A41412178
:1008B0007A3A42402078009DA0A07D3944444439D2
:1008C0003D4040403D3C24FF2424487E4943662B64
:1008D0002FFC2F2BFF0929F620C0887E0903205406
:1008E0005479410000447D413048484A3238404004
:1008F000227A007A0A0A727D0D19317D2629292F64
:1009000028262929292630484D402038080808087B
:1009100008080808382F10C8ACBA2F102834FA007D
:10092000007B000008142A142222142A14089500BF
:10093000220095AA005500AAAA55AA55AA000000AF
:10094000FF00101010FF00141414FF001010FF001F
:10095000FF1010F010F0141414FC001414F700FF32
:100960000000FF00FF1414F404FC141417101F10EF
:10097000101F101F1414141F00101010F00000009E
:10098000001F101010101F10101010F010000000A9
:10099000FF101010101010101010FF10000000FFBA
:1009A000140000FF00FF00001F10170000FC04F4FB
:1009B00014141710171414F404F40000FF00F714B3
:1009C000141414141414F700F7141414171410103A
:1009D0001F101F141414F4141010F010F000001F56
:1009E000101F0000001F14000000FC140000F01095
:1009F000F01010FF10FF141414FF141010101F003B
:100A0000000000F010FFFFFFFFFFF0F0F0F0F0FF3C
:100A1000FFFF0000000000FFFF0F0F0F0F0F384413
:100A20004438447C2A2A3E147E02020606027E02D4
:100A30007E0263554941633844443C04407E201E95
:100A40002006027E020299A5E7A5991C2A492A1CC4
:100A50004C7201724C304A4D4D303048784830BCB1
:100A6000625A463D3E494949007E0101017E2A2ADB
:100A70002A2A2A44445F444440514A444040444A5C
:100A800051400000FF0103E080FF000008086B6B8D
:100A9000083612362436060F090F06000018180013
:100AA00000001010003040FF0101001F01011E0076
:100AB000191D1712003C3C3C3C00000000000102E4
:100AC00004081020408000000000240027002A00B5
:100AD0002D00300000000000250028002B002E0013
:100AE00031000404040404030405020202020403A6
:100AF00002020202060606060606040402020204B8
:100B0000040408020110408040102040804080080A
:100B1000020401804020100201108010204040207B
:100B20000000000200090F0000030401000C000097
:100B300000000000000000000000000000000008AD
:100B40000B00020202010009040000010202000081
:100B500005240010010524010101042402060524D6
:100B60000600010705810310004009040100020A84
:100B70000000000705020240000007058302400054
:100B8000000403090412010002EF02014041233670
:100B90008000010102030141726475696E6F204C8F
:100BA0004C430041726475696E6F204C656F6E61D5
:100BB00072646F00351D11241FBECFEFDAE0DEBF77
:100BC000CDBF12E0A0E0B1E0E2E0F4E402C00590A5
:100BD0000D92A234B107D9F727E0A2E4B2E001C038
:100BE0001D92A230B207E1F715E0CBEDD5E004C0CD
:100BF0002197FE010E94ED1FCA3DD107C9F70E944F
:100C00005C110C94FF210C940000CF92DF92EF92C4
:100C1000FF920F931F93CF93DF936C017A018B01A7
:100C2000C0E0D0E0CE15DF0589F0D8016D918D01CF
:100C3000D601ED91FC910190F081E02DC60109955E
:100C4000892B11F47E0102C02196ECCFC701DF9100
:100C5000CF911F910F91FF90EF90DF90CF9008956B
:100C6000362F90E0FC01E05EF44F4491FC01EF5F11
:100C7000F44F2491FC01EE51F54F8491882309F43F
:100C800051C04423E1F150E0FA013197EF30F10512
:100C9000B0F5EA5AFF4F0C94ED1F909180009F77BA
:100CA00007C0909180009F7D03C090918000977F46
:100CB0009093800024C094B59F7702C094B59F7D27
:100CC00094BD1DC0909190009F7707C090919000B7
:100CD0009F7D03C090919000977F909390000FC0EC
:100CE0009091C0009F7703C09091C0009F7D90932A
:100CF000C00005C09091C200977F9093C200E82F7A
:100D0000F0E0EE0FFF1FEC52F54FA591B4918FB7B5
:100D1000F894EC91311103C020952E2301C02E2BA5
:100D20002C938FBF08953FB7F894809174029091EF
:100D30007502A0917602B091770226B5A89B05C0F6
:100D40002F3F19F00196A11DB11D3FBFBA2FA92F4A
:100D5000982F8827820F911DA11DB11DBC01CD01C7
:100D600042E0660F771F881F991F4A95D1F70895B3
:100D70000895089580E090E008950E94EA210F937D
:100D80001F93CF93DF93EC0188819981009729F01D
:100D90002A813B812617370788F48B016F5F7F4FCD
:100DA0000E942021009761F0998388831B830A8326
:100DB0002C813D81232B11F4FC01108281E001C0C4
:100DC00080E0DF91CF911F910F910895CF93DF9332
:100DD000EC0188819981009711F00E948820198286
:100DE00018821D821C821B821A82DF91CF91089586
:100DF000CF93DF93DB01482F50E0FA01EF5FF44F10
:100E00009491FA01EE51F54F2491222399F030E0AC
:100E1000220F331FF901EA53F54FC591D491F9011F
:100E2000EC52F54F259134912FB7F894E881E92BD6
:100E3000E8832FBF109711F460E004C0AF3FB10505
:100E400029F461E0DF91CF910C943006FA01E05E65
:100E5000F44FE4914E2F50E0FA013197EF30F10555
:100E600008F06CC0EB59FF4F0C94ED1F84B58068FF
:100E700084BDA7BD68C084B5806284BDA8BD63C0C1
:100E800080918000806880938000B0938900A09357
:100E9000880059C080918000806280938000B09368
:100EA0008B00A0938A004FC080918000886080935F
:100EB0008000B0938D00A0938C0045C0809190007D
:100EC000806880939000B0939900A09398003BC0F5
:100ED00080919000806280939000B0939B00A093DB
:100EE0009A0031C080919000886080939000B09308
:100EF0009D00A0939C0027C08091C00080688093D3
:100F0000C0008091C0008F7B8093C000A093CF0071
:100F10001AC08091C00080628093C000A093D0006E
:100F200012C08091C20088608093C2008091C2008C
:100F30008B7F8093C200A093D20005C0A038B1057A
:100F40000CF07FCF79CFDF91CF9108958F929F9250
:100F5000AF92BF92CF92DF92EF92FF926B017C0132
:100F60000E9493064B015C01C114D104E104F10419
:100F7000F1F00E949306DC01CB0188199909AA09B6
:100F8000BB09883E9340A105B10570F321E0C21A68
:100F9000D108E108F10888EE880E83E0981EA11CB4
:100FA000B11CC114D104E104F10419F7DDCFFF90A5
:100FB000EF90DF90CF90BF90AF909F908F9008956B
:100FC0001F920F920FB60F9211242F933F938F937E
:100FD0009F93AF93BF938091420290914302A0915F
:100FE0004402B09145023091730223E0230F2D3764
:100FF00020F40196A11DB11D05C026E8230F02961D
:10100000A11DB11D2093730280934202909343026D
:10101000A0934402B09345028091740290917502AE
:10102000A0917602B09177020196A11DB11D809327
:10103000740290937502A0937602B0937702BF91E9
:10104000AF919F918F913F912F910F900FBE0F9075
:101050001F9018952D9A0895BC0180E090E00C94A3
:10106000A6078FB12CB193B130E020953095207454
:101070003327A90123E0559547952A95E1F7292FB4
:1010800030E020953095207133273595279535959B
:101090002795242B8095807F822B089583B7817FAD
:1010A00083BF83B7816083BF889583B78E7F83BFFB
:1010B00008958EBD00000DB407FEFDCF0895EEEB40
:1010C000FAE090E1969FD001A0781124A80F6770F4
:1010D000E60FF11D9491AE57BD4F442319F08C914A
:1010E000982B03C090958C9198239C9308952F92F0
:1010F0003F924F925F926F927F928F929F92AF92A8
:10110000BF92CF92DF92EF92FF920F931F93CF93F4
:10111000DF93CDB7DEB727970FB6F894DEBF0FBECB
:10112000CDBFFC016A3069F4248D808D918D38E04B
:10113000239F800D911D1124918F808F178A168A0D
:10114000A6C06D3009F4A3C09F838E83348C238D99
:101150002983328D3A83608C718CE688F78880E829
:10116000E816F104C4F0AE81BF815C962C915C97C7
:10117000422F50E056968D919C915797B6E02B9F49
:10118000800D911D1124EE81FF81978B868B258D1B
:10119000211167C07CC0F0E46F16710424F7C70109
:1011A00025E0329E800D911D112418161906DCF6DB
:1011B000432C512CC30138E0339E800D911D112426
:1011C0001816190684F685E0689F800111240254E0
:1011D0001A4F20E0F8012490253009F4212C430116
:1011E00058E020FC02C0398101C03A8131110BC0A6
:1011F000F9818A81F81307C026945150840C951CFC
:101200005111EFCF25C067018C2D8E198315A0F7E2
:1012100054018A2D88198315B8F490E8C916D104B1
:1012200078F4A0E4AA16B10458F4432FB501C6011E
:101230002C833B835D830E945F085D813B812C8111
:10124000BFEFAB1ABB0AE5CFEFEFCE1ADE0ADCCF59
:101250002F5FE40CF51C0F5F1F4F263009F0BACF4B
:1012600082CF6AEF64039001659F300D11242058EE
:101270003F4F281739075CF4AE81BF81ED91FC9197
:1012800011970190F081E02D6AE0CD01099581E090
:1012900090E027960FB6F894DEBF0FBECDBFDF916A
:1012A000CF911F910F91FF90EF90DF90CF90BF9063
:1012B000AF909F908F907F906F905F904F903F90F6
:1012C0002F9008952F923F924F925F926F927F924C
:1012D0008F929F92AF92BF92CF92DF92EF92FF9246
:1012E0000F931F93CF93DF93CDB7DEB72D970FB634
:1012F000F894DEBF0FBECDBFED82E22EF12C9C0133
:101300002E0D3F1D37FD32C1803891050CF02EC1E6
:101310009B01200F311D37FD29C1603471050CF090
:1013200025C1DB0177FF04C0AA27BB27A61BB70B8B
:10133000A770BB279B0177FF02C0295F3F4F13E0D7
:10134000359527951A95E1F777FF08C021503109A7
:1013500068E070E0FB01EA1BFB0BDF01E02FE69584
:10136000E695E695CE2ED12C077019F0FFEFCF1A37
:10137000DF0AB9017695762F662777956795680F0E
:10138000791F6E577D4F8601020F131F198708873B
:10139000C12CD12CF8E0AF2EB12C85010A1B1B0B00
:1013A0001F830E83088519852017310709F4DEC0D5
:1013B0002830310509F4DAC02F3F1FEF31070CF454
:1013C000CAC08B0100581F4F1D870C874B013B0182
:1013D0002B011C011C830B831A8309831B861A862D
:1013E0000A851B850E151F050CF0B5C010E82116E7
:1013F000310409F4B0C037FC89C02F3FEFEF3E073E
:1014000009F4B0C00A851B850C0D1D1DFD81F1304E
:1014100079F4F801E40FF51FE491F0E08F010A2E52
:1014200001C0000F0A94EAF7F301B0800B2925C030
:10143000FD81F11114C0F801E40FF51FE491F0E013
:101440000A2E02C0EE0FFF1F0A94E2F78F010095EB
:101450001095F401A080B12C0A211B210EC0F801C7
:10146000E40FF51FE491F0E08F010A2E01C0000F98
:101470000A94EAF7F201B0800B250083109709F473
:1014800045C02730310509F441C00A851B850C0D84
:101490001D1DFD81F13089F4F801E40FF51FE49181
:1014A0000E2F10E00E8002C0159507950A94E2F702
:1014B000EC85FD85B0800B2928C0FD81F11115C098
:1014C000F801E40FF51FE4910E2F10E00E8002C02A
:1014D000159507950A94E2F700951095E981FA8130
:1014E000A080B12C0A211B2110C0F801E40FF51FC8
:1014F000E4910E2F10E00E8002C0159507950A9416
:10150000E2F7EB81FC81B0800B2500830A851B8507
:101510000F5F1F4F1B870A870C851D850F5F1F4FAD
:101520001D870C8709811A810F5F1F4F1A8309835A
:101530000B811C810F5F1F4F1C830B831FEF211A30
:10154000310AEFEF4E1A5E0AFFEF6F1A7F0A0FEFB4
:10155000801A900A45CF2F5F3F4F60587F4FCE0CC7
:10156000DF1C20CF109709F090CFD0CF2D960FB66B
:10157000F894DEBF0FBECDBFDF91CF911F910F91C9
:10158000FF90EF90DF90CF90BF90AF909F908F90A3
:101590007F906F905F904F903F902F90089582E0E2
:1015A00090E090931A018093190186E090E0909367
:1015B0001C0180931B011092480210924A02109263
:1015C0004902109246021092470280E00E943A0FB0
:1015D00083E580930E0180E290E090931801809360
:1015E000170110924C0210924B0228E030E0309329
:1015F000140120931301909312018093110185E44B
:1016000080930B0180E790E0909316018093150181
:101610000E94C91D24E030E040E050E00E949C1E82
:10162000DC01CB010296A11DB11D9093830680932E
:1016300082060895CF93DF931F92CDB7DEB76983FB
:10164000DC01ED91FC910280F381E02D41E050E05E
:10165000BE016F5F7F4F09950F90DF91CF91089585
:1016600083E08093E9008091F200882319F08AE3F7
:101670008093E8000895FC018485958597FD0BC053
:101680009FB7F89482E08093E9008091F2009FBFB9
:1016900090E0019608959FB7F89482E08093E90066
:1016A0008091F2009FBF90E008958F929F92AF9239
:1016B000BF92CF92DF92EF92FF920F931F93CF933F
:1016C000DF935C016B017A0180912801882309F482
:1016D0005BC080918102882309F456C080917E020C
:1016E00080FF05C08091E00082608093E000E70108
:1016F00010E00AEF83E0882E9AE3992E2097D9F123
:101700000E94FC1081110AC0015009F43DC061E043
:1017100070E080E090E00E94A607F0CF282F30E034
:10172000C217D3070CF48C2F4FB7F8948092E900BE
:101730009091E80095FF1DC0282F30E0C21BD30B0D
:10174000F601982F915020F081918093F100FACF0B
:10175000C20ED31E112319F09092E80009C08091A7
:10176000E80085FD06C09092E80011E0209709F09E
:1017700010E04FBFC3CF1111C3CF5D9884E68093B3
:101780007F021E141F0444F081E090E0F501938372
:10179000828380E090E001C0C701DF91CF911F916B
:1017A0000F91FF90EF90DF90CF90BF90AF909F9000
:1017B0008F9008950E94FC1090E008950F931F935E
:1017C000CF93DF931F92CDB7DEB78C01FC018485E8
:1017D000958597FF0EC0CE0101960E94D210019709
:1017E00019F4298130E002C02FEF3FEFF80135876F
:1017F0002487F801848595850F90DF91CF911F9103
:101800000F910895CF93DF931F92CDB7DEB7FC0100
:101810008485958597FD05C02FEF3FEF3587248799
:101820000BC0CE0101960E94D210019719F4898154
:1018300090E002C08FEF9FEF0F90DF91CF9108955E
:10184000DF92EF92FF920F931F93CF93DF93D82EE7
:101850008A017B01E40EF51EEB01CE15DF0571F068
:10186000D7FE03C0FE01849101C088810E9421112E
:1018700021968111F2CF8FEF9FEF01C0C801DF9158
:10188000CF911F910F91FF90EF90DF9008950F93EC
:101890001F93CF93DF931F92CDB7DEB782E089838A
:1018A00042E450E06FE37BE080E80E94200C0E945D
:1018B0000D11DC0112960D911C9113970115110564
:1018C00069F0D801ED91FC910280F381E02DBE0119
:1018D0006F5F7F4FC801099597FF07C089810F90FF
:1018E000DF91CF911F910F910895F8010085118527
:1018F000E5CF1F920F920FB60F9211248F939F93F3
:101900008091E1009091E100937F9093E10083FF4B
:101910000FC01092E90091E09093EB001092EC0060
:1019200092E39093ED001092810298E09093F00082
:1019300082FF20C093E09093E9009091F2009923F8
:1019400019F09AE39093E80090917F02992339F07F
:1019500090917F02915090937F02992389F1909109
:101960008002992339F090918002915090938002E7
:10197000992341F184FF10C08091E2008E7E816046
:101980008093E2008091E1008F7E8093E10080915E
:101990007E028E7E806111C080FF16C08091E200C1
:1019A0008E7E80618093E2008091E1008E7E809344
:1019B000E10080917E028E7E816080937E0204C071
:1019C0005D9ACDCF289AD6CF9F918F910F900FBE61
:1019D0000F901F9018951F920F920FB60F9211241F
:1019E000CF92DF92EF92FF920F931F932F933F932B
:1019F0004F935F936F937F938F939F93AF93BF9317
:101A0000EF93FF93CF93DF93CDB7DEB76C97DEBF35
:101A1000CDBF1092E9008091E80083FFEDC168E03E
:101A2000CE0145960E944F1182EF8093E8008D8988
:101A300087FF05C09091E80090FFFCCF03C09EEFA8
:101A40009093E800982F907609F0C6C09E892F8960
:101A5000188D91110CC0803829F480917D028093FB
:101A6000F10002C01092F1001092F10048C1422F23
:101A700050E0512B913051F4811141C14130510559
:101A800009F03DC180917D028D7F0BC0933061F4E0
:101A9000811135C14130510509F031C180917D027C
:101AA000826080937D022BC1953041F48091E800E3
:101AB00080FFFCCF20682093E30021C1963009F01D
:101AC0005FC0EB8CFC8C1092E90010927B021092AC
:101AD0007A02123091F510927902109278020E94E7
:101AE000470C99E0BE016F5F7F4FDB01E92F1D922C
:101AF000EA95E9F799831A8391E09E8390EA9887A3
:101B00009AEF998720917A0230917B02275F3F4FAD
:101B10003C832B838D831092E90010927B021092FC
:101B20007A02F0927902E092780249E050E080E097
:101B30000E94200C0E94470CE2C0F0927902E092D1
:101B400078020E940D11DC011296ED90FC90139723
:101B5000E114F10409F4C0C0D701ED91FC910480B7
:101B6000F581E02DBE016B5E7F4FC701099500979F
:101B700019F00CF0C4C0C7C0F701E084F184E8CFCD
:101B8000973009F4C0C0983021F481E08093F100CF
:101B9000B6C0993009F0B3C0837009F0B4C0E4E175
:101BA000F2E081E021E036E39081992361F08093B7
:101BB000E9002093EB0091919093EC003093ED00BD
:101BC0008F5F873089F78EE78093EA001092EA00F2
:101BD0008F898093810293C08B8D9C8D1092E90038
:101BE00010927B0210927A0290937902809378028D
:101BF000898D811156C08E899D89913A59F481321F
:101C000009F081C047E050E061E271E080E00E94AD
:101C1000200C75C0913209F076C0833289F4888D2A
:101C200090E0982F88272F89822BA0E0B0E0809346
:101C30001D0190931E01A0931F01B09320015FC06E
:101C4000803269F48091E80082FFFCCF67E081E296
:101C500091E00E944F118BEF8093E80006C0823222
:101C600009F04DC08F898093280180917C028823E0
:101C700019F0EEEFFAE002C0E0E0F8E08091210117
:101C800090912201A0912301B0912401803B9440C6
:101C9000A105B10509F07BC08091280180FF93C0A8
:101CA00076C00E940D11DC0112960D911C911397C4
:101CB0000115110541F1D801ED91FC910190F081E0
:101CC000E02DBE016B5E7F4FC8010995811117C0E1
:101CD000F80100851185ECCF113009F44EC01330A6
:101CE00091F48F89882309F445C0823081F440E85B
:101CF00060E183EA9BE00E94F81C882321F08EEFCC
:101D00008093E80079C081E28093EB0075C0813058
:101D100029F440E86BE087E99BE0EDCF833099F749
:101D20000E940D11DC011296ED90FC9013978E012C
:101D30000F5F1F4F6801E114F10479F0D701ED91B5
:101D4000FC910680F781E02DB801C7010995080FC5
:101D5000111DF701E084F184EECFD8011C92F60149
:101D600001900020E9F73197BF016C197D0940E02F
:101D7000C601C1CF61E87BE002C065E87BE0611588
:101D8000710509F2FB01449150E080E840CF0FB6A5
:101D9000F894A8958091600088618093600010920B
:101DA00060000FBEA895EE3F2AE0F20739F080915F
:101DB000FE0A9091FF0A91838083A1CF1092FF0ABF
:101DC0001092FE0A9CCFEE3F8AE0F80731F0808146
:101DD00091819093FF0A8093FE0A87E797E79183AA
:101DE00080839BE088E10FB6F894A895809360000B
:101DF0000FBE9093600083CF6C960FB6F894DEBF51
:101E00000FBECDBFDF91CF91FF91EF91BF91AF9109
:101E10009F918F917F916F915F914F913F912F9102
:101E20001F910F91FF90EF90DF90CF900F900FBE1A
:101E30000F901F901895809182028EBDE3E8F2E02A
:101E400081910DB407FEFDCF8EBD86E0E238F80724
:101E5000B9F70DB407FEFDCF089580E0E2E8F2E0A7
:101E600081118FEF00248193819381938193039457
:101E7000D1F70895CF93C82F6FEF70E08AE00E94EA
:101E8000F8066FEF70E06C1B71098BE00E94F8069A
:101E90006FEF70E089E0CF910C94F80620918E06E8
:101EA000282329F490918D06982381E009F480E09D
:101EB00008954F925F927F928F929F92AF92BF92BE
:101EC000CF92DF92EF92FF920F931F93CF93DF9306
:101ED00000D000D0CDB7DEB7DC014115510509F4C3
:101EE000C6C0FA01D490319634914D2C512C5C012E
:101EF000A40CB51C1A141B040CF0B9C08038910551
:101F00000CF0B5C0CB01830F911D181619060CF00B
:101F1000AEC0603471050CF0AAC0CB0177FF04C0DD
:101F200088279927861B970B87707B0177FF03C053
:101F3000F7E0EF0EF11C93E0F594E7949A95E1F742
:101F4000FE2D77FF07C0882329F0FFEFFE0D98E0F4
:101F5000981B892FB7FF05C0662777276A1B7B0B65
:101F600002C060E070E000E8A016B10424F090E840
:101F7000E92EEA1A01C0ED2CE61AAF2E0F2E000C46
:101F8000BB08FF3F1CF4CA2CC09401C0C12C91E0D7
:101F9000232F277009F490E0369536953695930FE8
:101FA000A90EB11C19E0A116B10414F098E09F1B12
:101FB000FC2CFF0E9D010F2D10E80103200D311D9B
:101FC0001124260F371F4E5F5F4FCD9C600D711D92
:101FD0001124460F571F61E070E0082E02C0660F03
:101FE000771F0A94E2F7EFEFE69FD001E79FB00D6D
:101FF0001124A095B095BC83AB837C809F0FF9160C
:10200000B1F1F901EE57FD4F6F01A12CB12CAE14C7
:1020100040F5FA01EA0DFB1DE491E69F4001E79FC0
:10202000900C11249A828982F7FC07C0F601108176
:10203000E12FEA238E2AF6018082882359F0F6E008
:10204000FF1544F0F601E058FF4F908097208A80FA
:10205000982890820FEFA01AB00A1FEFC11AD10A78
:10206000D6CFF394440D551D20583F4FC8CF0F9045
:102070000F900F900F90DF91CF911F910F91FF90D4
:10208000EF90DF90CF90BF90AF909F908F907F9018
:102090005F904F900895BF92CF92DF92EF92FF92A0
:1020A0000F931F93CF93DF937C01B42E00E010E0D9
:1020B0006C01C60ED11CE701F7FE0CC0C0E0D0E0F9
:1020C00009C0C817D90774F44B2DBE01C8010E947E
:1020D0005F082196C60121E4C216D10494F380E47E
:1020E00090E0EFCF0F5F1F4F0038110521F7DF9110
:1020F000CF911F910F91FF90EF90DF90CF90BF9005
:1021000008958F929F92AF92BF920F931F93CF9398
:10211000DF93CDB7DEB7A1970FB6F894DEBF0FBE41
:10212000CDBF19A2423008F44AE08E010F5D1F4F67
:10213000842E912CA12CB12CA50194010E94051F85
:10214000E62FB901CA0101501109EA3014F4E05D2B
:1021500001C0E95CD801EC93232B242B252B61F7DC
:102160000115110571F0F80101900020E9F7319790
:10217000AF01401B510BB80184E896E00E940506B0
:1021800002C080E090E0A1960FB6F894DEBF0FBECB
:10219000CDBFDF91CF911F910F91BF90AF909F90D6
:1021A0008F900895FC0180918102811103C08FEF0F
:1021B0009FEF08959FB7F89482E08093E900209103
:1021C000F20030E01216130614F421E030E021157D
:1021D000310559F0289884E6809380028091F100BF
:1021E00080838091F200882319F09FBFC901089570
:1021F0008BE68093E800F9CF2FB7F89483E08093C3
:10220000E9009091E800892F807295FF04C09091B9
:10221000F20080E4891B2FBF08958091A6068111EA
:102220000DC082E08093A20684E08093A306109202
:10223000A5061092A40681E08093A60682EA96E0A5
:10224000089540917A0250917B022091780230915A
:10225000790242175307B4F49091E8009570E1F3C6
:102260009091E80092FD19C08093F10080917A026C
:1022700090917B0201968F739927892B19F48EEF29
:102280008093E80080917A0290917B02019690936E
:102290007B0280937A0281E0089580E00895615086
:1022A00030F02091F100FC0120830196F8CF2898AE
:1022B00084E6809380020895CF93DF93CDB7DEB795
:1022C000A2970FB6F894DEBF0FBECDBF789484B549
:1022D000826084BD84B5816084BD85B5826085BD22
:1022E00085B5816085BD80916E00816080936E00B0
:1022F00010928100809181008260809381008091A2
:102300008100816080938100809180008160809352
:102310008000809191008260809391008091910073
:102320008160809391008091900081608093900003
:102330008091C10084608093C1008091C10082605F
:102340008093C1008091C10081608093C100809121
:10235000C30081608093C3008091C000826080933D
:10236000C0008091C20081608093C20080917A0099
:10237000846080937A0080917A00826080937A00F2
:1023800080917A00816080937A0080917A008068E1
:1023900080937A001092810210927D0210927E0248
:1023A0008091D70081608093D70080EA8093D80025
:1023B00089B5806189BD89B5826089BD09B400FE97
:1023C000FDCF61E070E080E090E00E94A607809180
:1023D000D8008F7C80618093D8008091E000807F5E
:1023E0008093E0008091E1008E7E8093E1008DE09B
:1023F0008093E200559A209AEEEFFFE78591949141
:102400008B3F9C4D19F481E080937C0281EC80939A
:102410007C0085B1806F85B9249884B1866E84B9BB
:102420005E9A5F988AB1806D8AB9769A6E9881B308
:10243000806F81BB899880B38D7080BB80E58CBD37
:1024400081E08DBD85E090E00E942C085F9A85E0D8
:1024500090E00E942C085E985C9808E911E07DE00D
:10246000F72EF00EF80184910E9459080F5F1F4F5C
:10247000F012F8CF5C9A81E88093640081E0809349
:10248000650000E014E080E00E9459080150110945
:10249000D1F70E94310887FF1FC05C9885EA0E942F
:1024A00059085C9A2E982F982D988091640080622C
:1024B000809364000E944E08FDCF2D980E94310841
:1024C0008478843871F00E9431088471843131F14C
:1024D00088EC90E00E942C080E94310882FDEDCF2C
:1024E0003AC00E942A0888EC90E00E942C082F989D
:1024F00082E090E00E94861E8F3F29F06FEF82E01D
:1025000090E00E948E1E84EF91E00E942C082F9A8A
:102510000E94310884788438D9F3D5CF0E942A08E4
:1025200088EC90E00E942C082E9882E090E00E94B7
:10253000861E882329F060E082E090E00E948E1ED3
:1025400084EF91E00E942C082E9A0E943108847139
:102550008431D9F3BDCF0E942A0882E090E00E9426
:10256000861E882331F03E9A3F9A81E080934D0287
:1025700004C010924D023E983F982E986EEEC62EE3
:10258000DD24DA940E94310886FF04C02E9A2F9A27
:102590002D9A41C0FCEFCF16FFEFDF0619F42E9AFB
:1025A0002F9806C028E1C216D10411F42F9A2D9855
:1025B0000E942D0FEE24E39400E128E548EE50E060
:1025C000B60184E190E00E9462090E941B0F8BE13A
:1025D00090E00E942C0830EFC3163FEFD30621F4A1
:1025E0008AEF90E00E942C084FEFC41AD40A59E1F8
:1025F000C516D10439F68CEB92E00E942C080E949B
:102600002A08E0918806F09189060190F081E02D7A
:1026100088E896E0099582E390E00E942C080E94E9
:1026200031088111F8CF81E280938F06CE010196A7
:102630004C0144244394512C44EE642E77247A9424
:102640002FB7F8948091420290914302A0914402E6
:10265000B09145022FBF409194065091950660912C
:1026600096067091970620919806222341F02091BA
:102670009006821B8093990610929806F4C78417DF
:102680009507A607B70738F4481B423008F4EBC794
:102690000E944E08E8C721E0209398068093900698
:1026A00090939106A0939206B093930620918F0683
:1026B000820F911DA11DB11D8093940690939506E4
:1026C000A0939606B093970680918B0690918C0606
:1026D000019690938C0680938B060E942D0F10928A
:1026E0009D0610929C0610929B0610929A0680916D
:1026F0008D0680938E060E94310880938D0620916E
:102700007102309172022130310509F04EC7E0901C
:102710001B01F0901C012EE02E9DC0012F9D900DFD
:1027200011240091190110911A01A8014150510979
:10273000FC01E40FF51FEE0FFF1FED5CFE4F208143
:1027400031813093700220936F029C01200F311F62
:10275000F901EE0FFF1FED5CFE4F608171817093F8
:102760006E0260936D02220F331FF901E95EFE4F86
:102770002081318130936C0220936B02BC01625F37
:102780007F4FFB01E00FF11FEE0FFF1FED5CFE4FCF
:102790002081318130936A022093690298012F5F72
:1027A0003F4FFC01E20FF31FEE0FFF1FED5CFE4FEA
:1027B000808191819093680280936702FB01E40F0E
:1027C000F51FEE0FFF1FED5CFE4F8081918190930E
:1027D000660280936502FB01E20FF31FEE0FFF1FFD
:1027E000ED5CFE4F8081918190936402809363023F
:1027F00023E0000F111F2A95E1F7580192E0A90E7E
:10280000B11C33E0EE0CFF1C3A95E1F797012D5F08
:102810003F4F3A8F298F20911701309118018091F5
:102820004B0290914C02C0901501D0901601A60168
:102830004F5F5F4F5E8F4D8F609182067091830670
:102840002090130130901401A1014E5F5F4F58A3F7
:102850004F8F40911101509112015C8F4B8F0A5F95
:102860001F4FA9014E5F5F4F4017510794F42A5F35
:102870003F4FA216B3066CF49701285F3F4F8217B3
:1028800093073CF40896298D3A8D281739070CF4E4
:10289000F4C64D8D5E8D40175107DCF458E0C50E2F
:1028A000D11CAC14BD04ACF483E0660F771F8A958D
:1028B000E1F79B012F5F3F4FC701089628173907A3
:1028C00044F4685F7F4F898D9A8D861797070CF4C3
:1028D000E4C62F8D38A120173107ACF436E0230E63
:1028E000311CA214B3047CF448E0E40EF11C8B8D7F
:1028F0009C8D8E159F053CF40896298D3A8D2817DE
:1029000039070CF4D6C680910F0190911001892BE4
:1029100079F446E050E050934A02409349028EE435
:1029200080930E0185EE9FEF909316018093150121
:102930008091490290914A020697B1F480918B06EA
:1029400090918C0666E470E00E94D91F892B61F497
:1029500085E090E090934A02809349028FEF9FEFC9
:102960009093100180930F010091190110911A01A9
:102970000130110551F480911B0190911C010297C7
:10298000E9F581E08093480239C009301105B1F5BD
:1029900080911B0190911C01029781F58091490261
:1029A00090914A02892B51F584E090E090934A027D
:1029B0008093490280916102909162020196909306
:1029C00062028093610280910C0190910D01019649
:1029D00090930D0180930C0180915F0290916002B1
:1029E00001969093600280935F028EE480930E01C3
:1029F00080EF9FEF9093160180931501809149021B
:102A000090914A02892B09F03DC084E00E944E0F4C
:102A1000882301F180916302909164020897D1F4B8
:102A2000809148028823B1F00F5F1F4F10931A0165
:102A30000093190180911B0190911C0101979093C3
:102A40001C0180931B0183E090E090934A028093E5
:102A500049027DC680E40E944E0FF82E882309F4B7
:102A60004AC68091630290916402089709F043C6B8
:102A700080E40E944E0F811128C680E20E944E0F12
:102A800081112BC68091490290914A02019729F544
:102A900080915B0290915C02A0915D02B0915E0218
:102AA00040915702509158026091590270915A0218
:102AB000841B950BA60BB70B0F97A105B10569F405
:102AC00080911B0190911C01019690931C018093B1
:102AD0001B0110924A021092490280914902909182
:102AE0004A02039771F580915B0290915C02A0917C
:102AF0005D02B0915E024091570250915802609180
:102B0000590270915A02841B950BA60BB70B0F97B5
:102B1000A105B105B1F48091190190911A010196B6
:102B200090931A018093190180911B0190911C01CF
:102B3000019690931C0180931B0110924A021092FF
:102B400049028091490290914A02029741F580E83A
:102B50000E944E0F882361F080916D0290916E0269
:102B6000049731F080911B0190911C01019713C0D3
:102B700080E10E944E0F882309F40DC680916902FE
:102B800090916A028330910509F0F9C580911B018B
:102B900090911C01019690931C0180931B018091E0
:102BA000490290914A02049709F061C088E00E94AE
:102BB0004E0F882381F08091470281110CC08091D3
:102BC000610290916202049709F02AC610924602AF
:102BD00081E0809347022091470280918B0690917B
:102BE0008C06222379F16EE170E00E94D91F892BB7
:102BF000F1F58091610290916202019790936202D7
:102C00008093610220910C0130910D012F5F3F4FA5
:102C100030930D0120930C01019649F50E94CF0AD3
:102C200080910C0190910D01019790930D0180937B
:102C30000C011092620210926102109260021092D6
:102C40005F0215C06FE070E00E94D91F892B79F4F4
:102C500080914602811106C00E943A0F81E0809364
:102C6000460205C08FEF0E943A0F109246028091F3
:102C70005F0290916002009729F4709218016092AF
:102C8000170103C08130910529F4709216016092FA
:102C9000150102C0029721F4709214016092130191
:102CA00080910E018E3409F43DC1809117019091FD
:102CB00018018032910539F480914B0290914C02B9
:102CC0004097C9F51FC08031910581F480914B0276
:102CD00090914C028031910511F423E504C08032BB
:102CE000910591F425E420930E010EC088349105DE
:102CF00011F580914B0290914C028032910539F090
:102D0000C097C9F487E504C08033910521F483E5B9
:102D100080930E0110C08034910569F483E580939F
:102D20000E0180E290E090931801809317011092B9
:102D30004C0210924B02809113019091140180314A
:102D4000910549F420911101309112012032310591
:102D500079F52EE40BC08831910559F420911101C9
:102D6000309112012831310519F523E520930B012B
:102D70001FC08032910559F4209111013091120148
:102D80002032310501F52EE420930B011CC088325E
:102D9000910559F42091110130911201283131052A
:102DA000E9F423E520930B0119C08033910571F0FC
:102DB0008833910541F48091110190911201489757
:102DC00069F583E516C08034910541F480911101C5
:102DD00090911201809711F58EE40BC08834910513
:102DE000E9F480911101909112018831910521F44B
:102DF00084E480930B0112C08034910579F485E45A
:102E000080930B0188E090E090931401809313016C
:102E100080E290E09093120180931101809115015E
:102E2000909116010896B9F480E790E0909316010E
:102E3000809315010E94C91D24E030E040E050E07D
:102E40000E949C1EDC01CB010296A11DB11D909336
:102E500083068093820680910E01833551F4809120
:102E60004B0290914C02019690934C0280934B023E
:102E700013C0873531F480911701909118010197A3
:102E800007C0853449F4809117019091180101968B
:102E9000909318018093170180911501909116016C
:102EA0000197909316018093150180918B06909164
:102EB0008C0683709927892BA9F580910B018E349C
:102EC00079F480911301909114010196909314016B
:102ED000809313018091110190911201019710C00C
:102EE000833599F480911301909114010196909388
:102EF00014018093130180911101909112010196A8
:102F000090931201809311010DC08434A1F3853494
:102F100049F480911301909114010196909314014A
:102F2000809313011092560210925502109254028F
:102F30001092530213E3E12E11E0F12EF7010191FB
:102F400011917F0180915502909156020115110552
:102F500061F46091530270915402B3E0660F771FE1
:102F6000BA95E1F744EB55E00EC00130110599F434
:102F70006091530270915402A3E0660F771FAA95E7
:102F8000E1F74AEA55E0F3E0880F991FFA95E1F777
:102F90000E94590F3BC00230110599F46091530211
:102FA0007091540243E0660F771F4A95E1F740EABB
:102FB00055E0E3E0880F991FEA95E1F70E94590F69
:102FC00038C00330110599F4609153027091540296
:102FD00023E0660F771F2A95E1F746E955E033E0D5
:102FE000880F991F3A95E1F70E94590F35C00430B8
:102FF000110561F4609153027091540213E0660F61
:10300000771F1A95E1F74CE855E038C005301105F7
:1030100081F46091530270915402B3E0660F771F00
:10302000BA95E1F7809155029091560242E855E039
:1030300025C00630110581F460915302709154024D
:10304000A3E0660F771FAA95E1F780915502909152
:10305000560248E755E012C007301105B1F46091FF
:10306000530270915402F3E0660F771FFA95E1F76F
:1030700080915502909156024EE655E0E3E0880FAC
:10308000991FEA95E1F70E94590F8091550290919E
:10309000560201968E30910529F090935602809346
:1030A00055020DC0109256021092550280915302A3
:1030B0009091540201969093540280935302F3E14D
:1030C000EF16F2E0FF0609F039CF80914802811136
:1030D00007C044E655E060E170E088E090E006C09B
:1030E0004AE555E068E170E088E390E00E94590FFE
:1030F00040E555E068E070E080E590E00E94590FFF
:1031000040E555E068E070E088E590E00E94590FE6
:1031100040E555E060E170E080E590E00E94590FE5
:1031200040E555E060E170E088E590E00E94590FCD
:1031300080E590E0909356028093550280E190E004
:10314000909354028093530200E010E040E5E42E97
:10315000F12C80916102909162020817190734F5F1
:10316000609153027091540246E455E080915502FB
:10317000909156020E94590F8091550290915602EB
:103180000130110531F00896909356028093550254
:103190000AC0F0925602E092550228E030E03093E7
:1031A0005402209353020F5F1F4FD3CF46E750E0E6
:1031B00050935602409355021092540210925302BB
:1031C000A12CB12CC12CD12C80910F019091100118
:1031D000C816D90694F4EE24E39408E028E04EE300
:1031E00055E0B50186E790E00E9462095FEFC51ADD
:1031F000D50A88E0A80EB11CE7CF60911B01709141
:103200001C0123E0660F771F2A95E1F780911901D1
:1032100090911A01EE24E39408E028E04EE355E093
:1032200033E0880F991F3A95E1F70E946209609197
:103230004B0270914C0228E046E355E08091170163
:10324000909118010E946209609111017091120120
:1032500028E04EE255E080911301909114010E9404
:10326000620980915F02909160020397A1F48091BE
:103270004602811110C048E755E060E270E080E04E
:1032800090E00E94590F44E255E060E270E088E06F
:1032900090E00E94590FC0901501D09016016091E6
:1032A00082067091830683E0660F771F8A95E1F7A7
:1032B000EE24E39408E028E04CE155E0C6010E94CA
:1032C0006209609182067091830693E0660F771F12
:1032D0009A95E1F7E12C28E044E155E0C6010E940F
:1032E00062098091490290914A02059709F09DC0B8
:1032F0008091090190910A018B319105A1F001960D
:1033000090930A018093090120E030E040E85FE3F8
:10331000609105017091060180910701909108016B
:103320000E94371F30C0C0900501D0900601E09088
:103330000701F090080120E030E040E051ECC701C7
:10334000B6010E940C1E882339F120E030E040E8ED
:103350005FE36091010170910201809103019091FE
:1033600004010E94371F6093010170930201809352
:1033700003019093040120E030E040E05FE3C701E7
:10338000B6010E94361F6093050170930601809379
:103390000701909308010CC080918E0683FF08C03E
:1033A00080918D0683FD04C010927202109271020A
:1033B00060910101709102018091030190910401DB
:1033C0000E94AA1F162F609105017091060180913D
:1033D0000701909108010E94A31FDC01CB0140E08E
:1033E000612F0E944B100091090110910A0141E0E8
:1033F0006BE0C80101960E944B10680192E0C90E73
:10340000D11CEE24E39409E02EE448E754E0B60131
:1034100089E190E00E946209E12C2EE44CED53E03A
:10342000B60189E190E00E946209E2E7F0E0F093E2
:103430009B06E0939A0628E330E030939D062093A4
:103440009C068091460281117EC080910C01909172
:103450000D018A3091050CF06FC01C8A1B8A1E8AF0
:103460001D8A188E1F8A4AE0B4010E94D71DF401FC
:1034700001900020E9F731978F0108191909B80167
:10348000CE0143960E94BF06811105C0CE0143962E
:103490000E94E60607C0188F0F8BB4018B899C89A8
:1034A0000E94F8211A8219821C821B821E821D82B0
:1034B00061E070E0C4010E94BF06811104C0C40134
:1034C0000E94E60608C05E824D8260E472E0898157
:1034D0009A810E94F8218F89988DEB88FC880D8154
:1034E0001E81E114F10409F49EC10097A1F0080FB8
:1034F000191FB801C4010E94BF06882309F493C1B3
:1035000029813A818D819E81B701820F931F0E948C
:10351000F8211E830D834D815E8169817A8184E863
:1035200096E00E94050689819A810E9488208B89F5
:103530009C890E94882007C0BC01990F880B990BB9
:103540004AE00E94811080910C0190910D01843617
:10355000910539F410920D0110920C0181E08093D5
:10356000520280915202882361F0EE24E39400E13C
:1035700020E14CEB53E069E270E080E790E00E94CC
:10358000620980915B0290915C02A0915D02B09112
:103590005E020196A11DB11D80935B0290935C02B7
:1035A000A0935D02B0935E025CC0232B09F059C06A
:1035B00090918E0693FF02C083FF39C12091500283
:1035C000309151022130310511F487E505C02F3FBC
:1035D0004FEF340719F485E48093000180918B0646
:1035E00090918C0666E070E00E94D91F892BE9F467
:1035F0004091000180914E0290914F02453441F478
:103600002F5F3F4F3093510220935002019609C023
:10361000473559F42150310930935102209350021B
:10362000019790934F0280934E0260914E027091E9
:103630004F024AE052E080915002909151020E9464
:10364000590F48EC51E068E070E08CE390E00E9494
:10365000590F45EA51E06BE370E08EE590E00E947F
:10366000590F0E941B0F80E090E0892B11F40C94FD
:1036700020130E9400000C941C1369A37AA30E94DB
:10368000CF0A80910F019091100101979093100142
:1036900080930F0169A17AA1FCC80E94CF0A809192
:1036A0000F019091100101979093100180930F01E9
:1036B00010C90E94CF0A80910F01909110010197CB
:1036C0009093100180930F011EC980916702909121
:1036D0006802039709F0D1C94BC080916F029091A5
:1036E0007002039709F0CEC982E090E090934A02FD
:1036F00080934902C7C980E20E944E0F882309F4D3
:10370000B1C020916502309166022830310509F080
:10371000B6C0AEC98111B5C088E00E944E0F8823A3
:1037200009F4A6C980916B0290916C0282309105D8
:1037300009F0B5C080911B0190911C0101979093F5
:103740001C0180931B0150924A02409249028091D1
:103750005B0290915C02A0915D02B0915E02809349
:10376000570290935802A0935902B0935A0280C90D
:1037700082E090E090934A02809349027EC90897C4
:1037800051F480911B0190911C01019690931C01B2
:1037900080931B0140C080E20E944E0F182F8823A7
:1037A00061F080916F0290917002049731F48091E2
:1037B000190190911A01019713C080E40E944E0FE5
:1037C000882309F486C02091670230916802243072
:1037D000310509F08EC08091190190911A0101966E
:1037E00090931A0180931901DAC9112309F4A9C031
:1037F0002091650230916602215031092230310555
:1038000008F09FC08091190190911A01019790933F
:103810001A018093190110924A0210924902BFC9FD
:103820000E94CF0AD8C9C4010E94E60674CE509205
:103830007202409271020E94CF0AE3E0F0E0F0933E
:103840001001E0930F011092620210926102109237
:10385000600210925F0210920D0110920C01109202
:103860005202ACCEFF2009F457CF2091670230916D
:103870006802232B09F44ECF0F5F1F4F0BC0F110CE
:10388000F4CF80916F0290917002892B09F444CF9C
:103890000150110910931A0100931901E9C89C0104
:1038A000235031092230310520F0089709F0E0C893
:1038B00041CF80911B0190911C01019790931C01B5
:1038C00080931B0182E090E090934A02809349022A
:1038D000CFC8112309F463C92091650230916602B3
:1038E00028303105F1F58091190190911A01019765
:1038F0000FC01111F1CF2091630230916402283082
:10390000310509F072CF8091190190911A01019649
:1039100090931A018093190150924A0240924902F1
:1039200080915B0290915C02A0915D02B0915E0279
:103930008093570290935802A0935902B0935A0271
:103940002EC9882309F42BC98091630290916402E7
:10395000029709F024C98091190190911A010196EA
:1039600056CF8111C8CF44CF0F931F93CF93DF93CE
:103970008C0181E090E00E94861E80FF31C08AE0C9
:1039800090E00E94861E9FEF980F9E3F48F522E32D
:1039900030E0D80157963C932E93569728E330E0B9
:1039A00059963C932E935897CBE0D0E0D801ED91F7
:1039B000FC910190F081E02D682FC8010995CE019E
:1039C0000E94861E2196C131D10581F70E941B0FEE
:1039D00088EE93E0DF91CF911F910F910C942C080A
:1039E000DF91CF911F910F91089504970C94B41C0F
:1039F000CF92DF92EF92FF920F931F93CF93DF93BB
:103A00001F92CDB7DEB7182F062FE42E862F880F12
:103A10008E5F99830E94211183E00E942111F12E73
:103A2000C12E9981D92E8C2D8F19801798F4F6010B
:103A3000E7FE02C0849101C080810E942111182FED
:103A400080E00E9421118123FFEFCF1ADF0A81114C
:103A5000EACF01C081E00F90DF91CF911F910F91CC
:103A6000FF90EF90DF90CF900895EEEAF6E013829A
:103A7000128288EE93E0A0E0B0E084839583A68371
:103A8000B7838EE192E0918380838FEF9FEF9587DC
:103A90008487E4E8F6E0138212821186128620E120
:103AA000238790878783108A118A128A138A148A3F
:103AB00080E392E0918380838EE392E09583848318
:103AC000178A168A118E108E81E0828F138E848F52
:103AD000158E0E94C91D24E030E040E050E00E94B5
:103AE0009C1EDC01CB010296A11DB11D90938306A3
:103AF0008093820608958F929F92AF92BF92CF9249
:103B0000DF92EF92FF92CF93DF93EC01688179818E
:103B10008A819B81611571058105910521F464E21B
:103B200079ED8BE597E02DE133EF41E050E00E9425
:103B30009C1E49015A019B01AC01A7EAB1E40E9415
:103B4000BB1E6B017C01ACEEB4EFA50194010E9499
:103B5000C91EDC01CB018C0D9D1DAE1DBF1DB7FF25
:103B600003C00197A109B04888839983AA83BB83C6
:103B7000BC01CD019F77DF91CF91FF90EF90DF9057
:103B8000CF90BF90AF909F908F9008950E947B1D23
:103B9000089589E291E00E947B1D089560932901B8
:103BA00070932A0180932B0190932C010895BB27D9
:103BB0004A3031F4992322F4BDE2909581959F4FCC
:103BC0000C94E31DBB27FB015527AA27880F991FDB
:103BD000AA1FA41710F0A41B83955051B9F7A05D3C
:103BE000AA3308F0A95DA193009779F7B111B193B9
:103BF0001192CB010C94FC1DDC01FC01672F71912B
:103C00007723E1F7329704C07C916D9370836291C2
:103C1000AE17BF07C8F308950E94111E08F481E093
:103C20000895990F0008550FAA0BE0E8FEEF16164D
:103C30001706E807F907C0F012161306E407F507A0
:103C400098F0621B730B840B950B39F40A2661F014
:103C5000232B242B252B21F408950A2609F4A140B7
:103C6000A6958FEF811D811D089597F99F6780E8C4
:103C700070E060E008959FEF80EC089500240A94BE
:103C80001616170618060906089500240A94121637
:103C90001306140605060895092E0394000C11F46A
:103CA000882352F0BB0F40F4BF2B11F460FF04C017
:103CB0006F5F7F4F8F4F9F4F089557FD9058440F70
:103CC000551F59F05F3F71F04795880F97FB991F7B
:103CD00061F09F3F79F08795089512161306140638
:103CE000551FF2CF4695F1DF08C0161617061806C5
:103CF000991FF1CF86957105610508940895E894A0
:103D0000BB2766277727CB0197F90895F999FECF4E
:103D100092BD81BDF89A992780B50895262FF9990B
:103D2000FECF1FBA92BD81BD20BD0FB6F894FA9A9E
:103D3000F99A0FBE01960895052E97FB1EF4009484
:103D40000E94B31E57FD07D00E94051F07FC03D039
:103D50004EF40C94B31E50954095309521953F4FED
:103D60004F4F5F4F089590958095709561957F4F67
:103D70008F4F9F4F08950E94271FA59F900DB49FBE
:103D8000900DA49F800D911D11240895B7FF0C94F0
:103D9000BB1E0E94BB1E821B930B08952F923F9265
:103DA0004F925F926F927F928F929F92AF92BF924B
:103DB000CF92DF92EF92FF920F931F93CF93DF93F7
:103DC000CDB7DEB7CA1BDB0B0FB6F894DEBF0FBE54
:103DD000CDBF09942A88398848885F846E847D84A1
:103DE0008C849B84AA84B984C884DF80EE80FD80A3
:103DF0000C811B81AA81B981CE0FD11D0FB6F89419
:103E0000DEBF0FBECDBFED010895A1E21A2EAA1BA1
:103E1000BB1BFD010DC0AA1FBB1FEE1FFF1FA2177A
:103E2000B307E407F50720F0A21BB30BE40BF50B77
:103E3000661F771F881F991F1A9469F76095709500
:103E4000809590959B01AC01BD01CF010895A29F83
:103E5000B001B39FC001A39F700D811D1124911D5E
:103E6000B29F700D811D1124911D08955058BB27DC
:103E7000AA270E944E1F0C944C1E0E943E1E38F032
:103E80000E94451E20F039F49F3F19F426F40C944B
:103E90003B1E0EF4E095E7FB0C94351EE92F0E94C3
:103EA0005D1E58F3BA17620773078407950720F061
:103EB00079F4A6F50C947F1E0EF4E0950B2EBA2F24
:103EC000A02D0B01B90190010C01CA01A001112420
:103ED000FF27591B99F0593F50F4503E68F11A16CC
:103EE000F040A22F232F342F4427585FF3CF46955D
:103EF00037952795A795F0405395C9F77EF41F167F
:103F0000BA0B620B730B840BBAF09150A1F0FF0F48
:103F1000BB1F661F771F881FC2F70EC0BA0F621F34
:103F2000731F841F48F4879577956795B795F79524
:103F30009E3F08F0B0CF9395880F08F09927EE0FB9
:103F40009795879508950E94AA1F6894B1110C94C3
:103F5000801E08950E94651E88F09F5798F0B92F23
:103F60009927B751B0F0E1F0660F771F881F991FAE
:103F70001AF0BA95C9F714C0B13091F00E947F1EB3
:103F8000B1E008950C947F1E672F782F8827B85FC3
:103F900039F0B93FCCF3869577956795B395D9F706
:103FA0003EF490958095709561957F4F8F4F9F4F10
:103FB0000895AA1BBB1B51E107C0AA1FBB1FA61770
:103FC000B70710F0A61BB70B881F991F5A95A9F7C2
:103FD00080959095BC01CD010895EE0FFF1F0590CF
:103FE000F491E02D0994CF93DF938230910510F482
:103FF00082E090E0E0910007F091010720E030E0DE
:10400000C0E0D0E0309711F1408151814817590745
:10401000C0F04817590761F482819381209719F005
:104020009B838A832BC0909301078093000726C04F
:104030002115310519F04217530718F49A01BE01F2
:10404000DF01EF010280F381E02DDCCF2115310586
:1040500009F1281B390B2430310590F412968D910B
:104060009C9113976115710521F0FB019383828365
:1040700004C09093010780930007FD01329644C06D
:10408000FD01E20FF31F81939193225031092D938B
:104090003C933AC02091FE063091FF06232B41F459
:1040A00020912F01309130013093FF062093FE06BE
:1040B00020912D0130912E012115310541F42DB7AC
:1040C0003EB74091310150913201241B350BE091F4
:1040D000FE06F091FF06E217F307A0F42E1B3F0B3C
:1040E0002817390778F0AC014E5F5F4F241735076A
:1040F00048F04E0F5F1F5093FF064093FE068193DA
:10410000919302C0E0E0F0E0CF01DF91CF910895FC
:104110000F931F93CF93DF93009709F48CC0FC019A
:104120003297138212820091000710910107011546
:10413000110581F420813181820F931F2091FE06A9
:104140003091FF062817390779F5F093FF06E093C1
:10415000FE0671C0D80140E050E0AE17BF0750F432
:1041600012962D913C911397AD012115310509F15E
:10417000D901F3CF9D01DA013383228360817181FC
:10418000860F971F8217930769F4EC012881398104
:10419000260F371F2E5F3F4F318320838A819B81FB
:1041A00093838283452B29F4F0930107E093000762
:1041B00042C01396FC93EE931297ED0149915991E9
:1041C0009E01240F351FE217F30771F4808191815E
:1041D000840F951F029611969C938E9382819381F2
:1041E00013969C938E931297E0E0F0E0D80112961C
:1041F0008D919C911397009719F0F8018C01F6CFDF
:104200008D919C9198012E5F3F4F820F931F2091BB
:10421000FE063091FF062817390769F4309729F414
:10422000109201071092000702C0138212821093AD
:10423000FF060093FE06DF91CF911F910F91089525
:10424000A0E0B0E0E6E2F1E20C94D21EEC010097AF
:1042500021F4CB010E94F31FB8C0FC01E60FF71F49
:104260009C0122503109E217F30708F4ACC0D901D0
:104270000D911C91119706171707B0F00530110525
:1042800008F49FC0C80104978617970708F499C0DF
:1042900002501109061B170B019311936D937C9328
:1042A000CF010E9488208DC05B01A01AB10A4C0189
:1042B000800E911EA0910007B091010740E050E0F0
:1042C000E12CF12C109709F44AC0A815B905D1F5D5
:1042D0006D907C901197630182E0C80ED11CCA14C6
:1042E000DB0480F1A3014A195B096A0182E0C80E70
:1042F000D11C1296BC9012971396AC91B5E0CB16D8
:10430000D10440F0B282A38351834083D9016D93DD
:104310007C930AC00E5F1F4FC301800F911FF901EC
:1043200091838083EB2DFA2FE114F10431F0D70152
:104330001396FC93EE93129744C0F0930107E09319
:1043400000073FC08D919C9111974817590708F4B9
:10435000AC017D0112960D90BC91A02DB3CF809140
:10436000FE069091FF0688159905E1F44617570758
:10437000C8F480912D0190912E01009741F48DB7E2
:104380009EB74091310150913201841B950BE81783
:10439000F907C8F4F093FF06E093FE06F901718374
:1043A00060830FC0CB010E94F31F7C01009759F07E
:1043B000A801BE010E94EF21CE010E948820C70102
:1043C00004C0CE0102C080E090E0CDB7DEB7EEE0E1
:1043D0000C94EE1E81E090E0F8940C94FF21FB0118
:1043E000DC0102C001900D9241505040D8F7089571
:1043F000FB01DC0101900D920020E1F70895F89493
:02440000FFCFEC
:104402004500005041000060C1F2FF4562005303C5
:1044120000200008007000200002000600FFFFFFDD
:10442200FF00E100000000000001000000000002A7
:1044320007800000000000000000000500060006E2
:10444200000600060006000700070000000000004A
:10445200000800040008000800080008000800081E
:104462000008000800080000000000000008000327
:1044720000080008000800080008000800080008FA
:104482000008000000000000000100030002000418
:1044920000020008000800080004000100010000FA
:1044A20000000000000000080008000800080008E2
:1044B20000080008000300000000000000000000E7
:1044C20000000002000200020004000400020002D8
:1044D20000030000000000000000000000000008CF
:1044E2000008000800080008000800080008000092
:1044F20000000000000000000000000100010001B7
:1045020000010001000100010001000000000000A4
:1045120000000000C18081000000000000001A0BB2
:10452200550BDA0B300B3B0B020CDE0B00000000CC
:1045320077080506BA06B906B41CFCFF0000F51C94
:02454200300047
:00000001FF
